:100000000C945D000C9485000C9485000C94850084
:100010000C9485000C9485000C9485000C9485004C
:100020000C9485000C9485000C9485000C9485003C
:100030000C9485000C9485000C9485000C9485002C
:100040000C94E3050C9485000C9451060C942B063B
:100050000C9485000C9485000C9485000C9485000C
:100060000C9485000C94850000000008000201003B
:100070000003040700000000000000000000000072
:10008000250028002B0000000000240027002A0083
:10009000040404040404040402020202020203032E
:1000A0000303030301020408102040800102040836
:1000B00010200102040810207E0611241FBECFEF7D
:1000C000D8E0DEBFCDBF11E0A0E0B1E0ECEEF1E1A1
:1000D00002C005900D92A436B107D9F723E0A4E63B
:1000E000B1E001C01D92AC33B207E1F710E0CDE5FD
:1000F000D0E004C02197FE010E94EE08CC35D10764
:10010000C9F70E94D9060C94F4080C94000090E002
:10011000FC01EC55FF4F249180579F4FFC018491C7
:10012000882399F090E0880F991FFC01EA57FF4F50
:10013000A591B491FC01E458FF4F859194918FB73C
:10014000F894EC91E22BEC938FBF089580E48093B8
:100150007C0080917A00806480937A0080917A009C
:1001600086FDFCCF8091780090917900089590E011
:10017000FC01E859FF4F2491FC01EC55FF4F3491ED
:10018000FC01E057FF4FE491EE23C9F0222339F040
:10019000233001F1A8F4213019F1223029F1F0E0E7
:1001A000EE0FFF1FE458FF4FA591B4918FB7F8945D
:1001B000EC91611126C030953E233C938FBF08958A
:1001C0002730A9F02830C9F0243049F78091800009
:1001D0008F7D03C0809180008F7780938000DFCF78
:1001E00084B58F7784BDDBCF84B58F7DFBCF8091C5
:1001F000B0008F778093B000D2CF8091B0008F7D18
:10020000F9CF3E2BDACF789484B5826084BD84B573
:10021000816084BD85B5826085BD85B5816085BD01
:10022000EEE6F0E0808181608083E1E8F0E010821A
:10023000808182608083808181608083E0E8F0E05B
:10024000808181608083E1EBF0E080818460808345
:10025000E0EBF0E0808181608083EAE7F0E080817C
:1002600084608083808182608083808181608083DC
:100270008081806880831092C1000895813091054B
:1002800039F0880F991F880F991F05970197F1F78B
:1002900008953FB7F89480917B0190917C01A091E3
:1002A0007D01B0917E0126B5A89B05C02F3F19F0B6
:1002B0000196A11DB11D3FBFBA2FA92F982F8827E6
:1002C000BC01CD01620F711D811D911D42E0660FC1
:1002D000771F881F991F4A95D1F708958F929F9293
:1002E000AF92BF92CF92DF92EF92FF920E944901AC
:1002F0004B015C018AE0C82ED12CE12CF12C0E942C
:100300004901681979098A099B09683E734081058A
:100310009105A8F321E0C21AD108E108F10888EE9E
:10032000880E83E0981EA11CB11CC114D104E10405
:10033000F10429F7FF90EF90DF90CF90BF90AF903E
:100340009F908F9008952FB7F894609177017091E6
:1003500078018091790190917A012FBF0895CF9211
:10036000DF92EF92FF920F931F93CF93DF937C0165
:100370006A0110E000E00C151D0581F0EB01D701CA
:10038000ED91FC910190F081E02D6991C7010995F3
:10039000892B21F00F5F1F4FBE01EDCFC801DF9108
:1003A000CF911F910F91FF90EF90DF90CF90089524
:1003B000FC01538D448D252F30E0842F90E0821B6B
:1003C000930B541710F0CF96089501970895FC01F0
:1003D000918D828D981761F0A28DAE0FBF2FB11D48
:1003E0005D968C91928D9F5F9F73928F90E00895A0
:1003F0008FEF9FEF0895FC01918D828D981731F05A
:10040000828DE80FF11D858D90E008958FEF9FEFAD
:100410000895FC01918D228D892F90E0805C9F4F83
:10042000821B91098F73992708958FE791E00E94AD
:10043000090221E0892B09F420E0822F089580E051
:1004400090E0892B29F00E94150281110C94000084
:100450000895FC01A48DA80FB92FB11DA35ABF4F59
:100460002C91848D90E001968F739927848FA689B3
:10047000B7892C93A089B1898C91837080648C9307
:10048000938D848D981306C00288F389E02D8081B6
:100490008F7D80830895EF92FF920F931F93CF93E8
:1004A000DF93EC01F62E81E0888F9B8D8C8D981365
:1004B0001AC0E889F989808185FF15C09FB7F89433
:1004C000EE89FF896083E889F9898081837080647F
:1004D00080839FBF81E090E0DF91CF911F910F91CA
:1004E000FF90EF9008950B8D10E00F5F1F4F0F737B
:1004F0001127E02E8C8D8E110CC00FB607FCFACFA1
:10050000E889F989808185FFF5CFCE010E94290213
:10051000F1CFEB8DEC0FFD2FF11DE35AFF4FF08271
:100520009FB7F8940B8FEA89FB8980818062D0CFD6
:10053000CF93DF93EC01888D8823B9F0AA89BB891A
:10054000E889F9898C9185FD03C0808186FD0DC005
:100550000FB607FCF7CF8C9185FFF2CF808185FF26
:10056000EDCFCE010E942902E9CFDF91CF9108950E
:10057000CF93DF93EC0160E08E810E94B70081E0B1
:1005800090E00E943E0161E08E810E94B70081E010
:1005900090E00E943E0160E08E810E94B70084E6F8
:1005A00090E0DF91CF910C943E01CF92DF92EF92D9
:1005B000FF920F931F93CF93DF936C017C0187E031
:1005C000E80EF11CD0E0C0E0062F10E0B8010C2EC0
:1005D00002C0759567950A94E2F76170F701819101
:1005E0007F010E94B7002196C430D10579F7C6017A
:1005F000DF91CF911F910F91FF90EF90DF90CF90FF
:100600000C94B802CF92DF92EF92FF920F931F9358
:10061000CF93DF93EC01F62E642F8C810E94B700FC
:100620008D818F3F19F060E00E94B7000F2D10E020
:100630008F8584FF25C06E0187E0C80ED11CF12C88
:10064000E12CB8010E2C02C0759567950A94E2F76B
:100650006170F60181916F010E94B700FFEFEF1A00
:10066000FF0A88E0E816F10461F7CE01DF91CF912F
:100670001F910F91FF90EF90DF90CF900C94B802F4
:10068000B80184E0759567958A95E1F7CE010E94DF
:10069000D5026F2DCE01DF91CF911F910F91FF9069
:1006A000EF90DF90CF900C94D50240E0682F84E269
:1006B00093E00C94020381E00E94550380ED97E0E3
:1006C0000C943E010F931F93CF93DF93823029F454
:1006D0009091330398609093330380933703109283
:1006E000380380E48093390380E180933A0380E506
:1006F00080933B03809128030E9487008091290307
:100700008F3F11F00E94870080912A030E9487008A
:100710000BE213E0D0E0C0E08091330384FD0CC015
:1007200084E090E0C817D90754F4F80181918F0153
:100730000E9487002196F0CF88E090E0F3CF80E51B
:1007400093EC0E943E0160E0809128030E94B70074
:1007500060E080912A030E94B700809129038F3FB7
:1007600019F060E00E94B7008091330384FD37C028
:1007700063E084E293E00E94D50284E991E10E9463
:100780003E0163E084E293E00E94D50284E991E1B6
:100790000E943E0163E084E293E00E94D50286E974
:1007A00090E00E943E0162E084E293E00E94D50264
:1007B0008091330380620E94550384E08093340368
:1007C0008CE00E9455030E945B0382E08093350316
:1007D00086E0DF91CF911F910F910C9455038062B9
:1007E0000E94550384E991E10E943E018091330308
:1007F00080620E94550386E990E00E943E0180914C
:10080000330380620E945503D3CFE0913703E23077
:1008100040F4E150F0E0EC5DFC4F848980680C947A
:100820005503E1E0F7CF41E00E94020381E090E050
:100830000895089590E080E00895680F791F2FEFE4
:100840003FEFFC01819190E048E0DC01A227369562
:100850002795A0FF04C058E0252754E83527969532
:100860008795415091F7CF01E617F70751F7C90176
:10087000809590950895009799F0FC0101900020D3
:10088000E9F73197AF01481B590BE0912403F09130
:1008900025030280F381E02DBC0184E293E00994FA
:1008A00090E080E008958F929F92AF92BF92CF9296
:1008B000DF92EF92FF920F931F93CF93DF93CDB709
:1008C000DEB7A1970FB6F894DEBF0FBECDBF6B01A8
:1008D0007C0119A2423008F44AE08E010F5D1F4FDF
:1008E000842E912CB12CA12CC701B601A501940135
:1008F0000E94CC086A3014F5605DF80162938F01A4
:10090000C814D904EA04FB04B0F4CF010E943B04EC
:10091000A1960FB6F894DEBF0FBECDBFDF91CF9189
:100920001F910F91FF90EF90DF90CF90BF90AF900D
:100930009F908F90089569017A01D6CF695CDDCFD1
:100940008F929F92AF92BF92CF92DF92EF92FF92DF
:100950000F931F93CF93DF93CDB7DEB72B970FB6CF
:10096000F894DEBF0FBECDBF19861A861B866F8333
:100970009827892798279987888763E070E0CE01B8
:1009800007960E941D049827892798279B878A87A6
:10099000A0911E03B0911F03109709F45CC0BE0123
:1009A000695F7F4F4B016E017CE0C70ED11C61E097
:1009B00070E091E030E020E0F40181914F01AB0163
:1009C0004F5F5F4FEE24E394F12CEC0EFD1EE20E20
:1009D000F31E811109C0F70190839B0191E08C14F3
:1009E0009D04A9F0BA01E8CFAA24A394B12CAC0EBF
:1009F000BD1EA60EB71EF50180839F5F9F3F79F74E
:100A0000F70190839A01AB014E5F5F4FE7CF61E042
:100A100070E06C0F7D1F260F371FF9019083ED9159
:100A2000FC9111970280F381E02DBE016F5F7F4F33
:100A3000CD01099580911E0390911F03DC01ED917A
:100A4000FC910190F081E02D60E009950FB6F894DB
:100A5000DEBF0FBECDBF2B960FB6F894DEBF0FBE24
:100A6000CDBFDF91CF911F910F91FF90EF90DF905D
:100A7000CF90BF90AF909F908F900895EF92FF928C
:100A80000F931F93CF93DF93EC018B0110927101B1
:100A900067307105C9F066E070E0C8010E94A004EB
:100AA0000E945B038EE191E00E943B040E940504DA
:100AB000B80190E080E04AE0DF91CF911F910F9163
:100AC000FF90EF900C9453040D811E811027012795
:100AD000102765E070E00E941D047C0108171907CB
:100AE000C1F065E070E00E94A0040E945B038AE20E
:100AF00091E00E943B040E940504B80190E080E070
:100B00004AE00E94530487E391E00E943B04B7014E
:100B1000D0CF88818032A1F08033A1F1803109F0FB
:100B200045C082E58093710162E070E090E080E072
:100B3000DF91CF911F910F91FF90EF900C94A00443
:100B400084E58093710163E070E090E080E00E94B2
:100B5000A00489819A8198278927982790936D010D
:100B600080936C018B819C8198278927982790938B
:100B70006F0180936E01DF91CF911F910F91FF90D4
:100B8000EF9008951092710161E070E090E080E0D4
:100B90000E94A0040E945B0389E391E0DF91CF9162
:100BA0001F910F91FF90EF900C943B0410927101F4
:100BB000888164E070E090E00E94A0040E945B03E2
:100BC00081E491E0EBCF1F921FB61F9211242F9367
:100BD0003F938F939F93AF93BF93809177019091B1
:100BE0007801A0917901B0917A013091760123E0EA
:100BF000230F2D3750F50196A11DB11D20937601CD
:100C00008093770190937801A0937901B0937A0152
:100C100080917B0190917C01A0917D01B0917E013A
:100C20000196A11DB11D80937B0190937C01A0933F
:100C30007D01B0937E01BF91AF919F918F913F91C4
:100C40002F911F901FBE1F90189526E8230F029624
:100C5000A11DB11DD3CF1F920F920FB60F92112479
:100C60002F933F934F935F936F937F938F939F93B4
:100C7000AF93BF93EF93FF938FE791E00E94290218
:100C8000FF91EF91BF91AF919F918F917F916F9164
:100C90005F914F913F912F910F900FBE0F901F903A
:100CA00018952F932FB72F938F939F93EF93FF93C5
:100CB000E0918F01F09190018081E0919501F09198
:100CC000960182FD19C09081809198018F5F8F738A
:100CD00020919901821741F0E0919801F0E0E158EC
:100CE000FE4F958F80939801FF91EF919F918F9187
:100CF0002F912FBF2F9118958081F6CFEFE7F1E06C
:100D00001382128288EE93E0A0E0B0E084839583A2
:100D1000A683B78384E091E09183808385EC90E0A3
:100D20009587848784EC90E09787868780EC90E0B5
:100D3000918B808B81EC90E0938B828B82EC90E0A6
:100D4000958B848B86EC90E0978B868B118E128E20
:100D5000138E148EE4E2F3E01382128286E191E0B6
:100D6000918380838CE084838FEF85838BE08683FF
:100D700085E0878384E0808783E0818782E08287C3
:100D80001386148615861686178681E00E946203F4
:100D900010921D0310921C0310921F0310921E0349
:100DA0001092210310922003109223031092220329
:100DB0000895CDB7DEB70E94030189E00E94870045
:100DC00088E00E948700E0918F01F091900182E01D
:100DD0008083E0918B01F0918C011082E0918D0174
:100DE000F0918E018FEC808310929701E091930136
:100DF000F091940186E08083E0919101F09192015D
:100E0000808180618083E0919101F09192018081E5
:100E100088608083E0919101F091920180818068E7
:100E20008083E0919101F091920180818F7D808398
:100E30008FE791E090931F0380931E038EE395E06C
:100E40009093210380932003109223031092220396
:100E500082E00E946203BB24B39400E010E061E0F2
:100E600089E00E94B7000E946E010E94A600909344
:100E700075018093740160E089E00E94B7000E94D0
:100E80006E010E94A600909373018093720180917D
:100E90007101823509F0D2C0809174019091750181
:100EA000209172013091730170E060E0821B930B1E
:100EB0000E94A004C0907401D0907501E09072016E
:100EC000F09073010E94A30140906401509065016D
:100ED00060906601709067019B01AC01241935098F
:100EE0004609570929013A0139EE431633E0530602
:100EF0006104710480F1CE18DF086093640170937F
:100F0000650180936601909367010E945B038DE405
:100F100091E00E943B040E9405040D2C000CEE0899
:100F2000FF084AE0C701B601F7FE13C0E0912403B1
:100F3000F09125030190F081E02D6DE284E293E0D1
:100F4000099566277727CB016C197D098E099F09C2
:100F50004AE00E94530480911E0390911F03892B45
:100F600009F40EC180911E0390911F03DC01ED91E5
:100F7000FC910084F185E02D0995181619060CF0F6
:100F8000FFC080911E0390911F03DC01ED91FC9145
:100F90000284F385E02D09958111DDC06090200366
:100FA000709021036114710439F4809122039091AF
:100FB0002303892B09F4BFC0EDB6FEB660911C0374
:100FC00070911D03EDB7FEB7E61BF70B0FB6F89453
:100FD000FEBF0FBEEDBF8DB79EB7019661157105BF
:100FE00009F49CC040E050E0B0E0A0E0A617B707CD
:100FF00008F096C09D01245E3D4FF901A0809D013F
:101000002A0D311D6217730718F4F1E0AF1286C084
:1010100011969A019B2C941A492D420F4A1508F0FB
:101020006EC0AC01420F531FFD01E45EFD4FD08046
:10103000FA01D08211962F5F3F4FEECF8091710160
:10104000843509F088CF2091740130917501809129
:10105000720190917301281B390B809170014091AE
:101060006E0150916F01421753070CF446C0409136
:101070006C0150916D01241735070CF480E09091BC
:101080007001981709F467CF809370016091700127
:1010900088E00E94B70080917001811126C0809184
:1010A000680190916901A0916A01B0916B0101966C
:1010B000A11DB11D8093680190936901A0936A01FD
:1010C000B0936B010E945B0386E591E00E943B04B4
:1010D0000E940504609168017091690180916A0124
:1010E00090916B014AE00E9453048091700170E07E
:1010F00060E090E00E94A0042ECF81E0C0CFFFEF1F
:10110000AF1651F06A177B0739F0AC01420F531F3D
:10111000FA0110822F5F3F4FA90168CF40E050E0F5
:101120006114710469F0BA01F30109950FB6F894DE
:10113000FEBE0FBEEDBE10921D0310921C0312CF17
:10114000E0912203F0912303309781F3BC018CE1FD
:1011500092E00995EBCF20911C0330911D03A9016A
:101160004F5F5F4F4F3F510511F008F0FBCE50939A
:101170001D0340931C03245E3D4FD9018C93F2CE96
:101180000115110509F46BCE0E941502882309F49C
:1011900066CE0E94000063CEA1E21A2EAA1BBB1BE2
:1011A000FD010DC0AA1FBB1FEE1FFF1FA217B30733
:1011B000E407F50720F0A21BB30BE40BF50B661F49
:1011C000771F881F991F1A9469F76095709580950D
:1011D00090959B01AC01BD01CF010895EE0FFF1F5B
:0C11E0000590F491E02D0994F894FFCFE5
:1011EC00000000004B02AF01D80198020902E70190
:1011FC00FB01000000001304AF011A041904706114
:10120C00636B65742073697A65004352432063688D
:10121C0065636B73756D00200053796E63204F4BC3
:10122C0000756E6B6E6F776E20636D640052617724
:10123C00206D6F64650054726967676572206D6F0D
:04124C0064650000D5
:00000001FF
